:020000040000fa
:10000000f07f002059c3000047b30000c7b40000d0
:1000100000000000000000000000000000000000e0
:100020000000000000000000000000008baa00009b
:1000300000000000000000008baa00008baa000056
:100040008baa00008baa00008baa00008baa0000dc
:1000500065c800008baa00003dbc00008baa000010
:100060008baa0000d97a00008baa00008baa00009e
:10007000058f00008baa00008baa00008baa00004d
:100080008baa00008baa000009d500008baa0000f3
:100090008baa00008baa00008baa00008baa00008c
:1000a0008baa00008baa00008baa00008baa00007c
:020000040000fa
:1000b000f8b5c046f8bc08bc9e46704765d800003d
:1000c00085c00000f8b5c046f8bc08bc9e46704725
:0400d0005dc000000f
:020000040000fa
:0800d400847800000100000027
:020000040000fa
:1000dc00f0b5de464e4657464546e0b5d7b08946a4
:1000ec001600109307900df039fb0368180020934d
:1000fc000bf04aff4b461d909b891b0605d54b46c2
:10010c001b69002b01d101f014fa2dab2a930023ab
:10011c00cb462aafb046bb607b6017931a931b93f8
:10012c002dae1c93219319931e931f930a93434650
:10013c001b784446002b1cd0252b02d119e0252b13
:10014c0003d001342378002bf9d14346e51a10d0a3
:10015c0043463360bb6875605b19bb607b680836cf
:10016c0001337b60072b4fdc0a9b9c46ac446346f7
:10017c000a932378002b01d101f07af9631c190042
:10018c0000231caad376013b9a460023627855467d
:10019c000c000b93089301341300203b5a2b00d90d
:1001ac005de3df499b00cb589f462023089a1a43f6
:1001bc0008922278efe7079b18009a460df0cefaca
:1001cc00436818001f930bf0dffe81461e905046cb
:1001dc000df0c4fa836819934b46002b08d0199b79
:1001ec00002b05d0199b1b78002b01d001f088f94e
:1001fc002278d0e70b9a109352420b920423089a60
:10020c001a4308922278c6e73a005946079808f034
:10021c00b1f9002801d001f080fc2daea4e7c14b50
:10022c00139424331c93089b1492aa469b0600d566
:10023c0048e1089bdb0601d500f08efe089b5b06af
:10024c0001d501f035f9089b9b0501d400f084fe23
:10025c00109b1a780c92002204331093089b0d9279
:10026c00db0700d53fe10c9b0d9c19002143ae4be5
:10027c00089a1a401300022200201cace07650466b
:10028c00013000d1c9e080201c008443089400296f
:10029c0000d0c7e05146002901d000f0b3fc002a81
:1002ac0001d000f0a9fd01321a4056ab0e929846cf
:1002bc00002a08d0632330213daad1541caa9446ad
:1002cc0084336344984653460e9a0993924500da58
:1002dc00099200221cabdb7e0f921592189216929b
:1002ec00002b02d0099a013209920222089911407e
:1002fc00119102d0099a0232099284220899114074
:10030c00129100d0b7e20b9a0999541a002c00dc18
:10031c00b1e2ba687b68854d102c22dd102189462c
:10032c0031005e4603e0103c0831102c17dd4846c6
:10033c00103201330d604860ba607b60072bf2dd30
:10034c003a003100079808f015f9002801d000f0a8
:10035c0066fd103cba687b682da9102ce7dcb3460f
:10036c000e0074600133a4183560bc607b60072bf1
:10037c0001dd00f047fd1cab0836db7e7ce2089b00
:10038c0013941492aa469a0600d57de0da0601d59c
:10039c0000f0eafd5a0601d501f077f89a0501d470
:1003ac0000f0e2fd109a11780c91002104320d91ad
:1003bc0010920c9901225fe7089b13941492aa46a1
:1003cc0010999a0600d53ce1da0601d500f0c0fd83
:1003dc005a0601d501f070f89a0501d400f0b8fd69
:1003ec000a7852b20c920431d2170d92109100d4ab
:1003fc0036e10c9c0d9d00226142aa4108001100bf
:10040c002d221cace27604000c900d9150460c434e
:10041c002c3a2100013000d035e7002901d100f041
:10042c00f2fb0893012a01d100f09afc022a01d0b8
:10043c0000f018fc1c9c0f20a446b04656ab1900cb
:10044c000c9a0d9b0400654614402c5d1e07150983
:10045c0001392e430c701c092300340032001c435c
:10046c00f0d1464688460c920d93424656ab9b1ae9
:10047c000e9328e710231492089a13941a4313002e
:10048c00aa469a0600d481e70721109a07328a43bc
:10049c0001318c46944461461091116852680800f1
:1004ac00110004000c430c900d9101222100e3e695
:1004bc001c4b139410331c93089b1492aa469b0656
:1004cc0000d4b6e60722109b0733934301329446bf
:1004dc009c4462465c681b680c930d94089b1092bc
:1004ec00db0700d4bfe60c9b0d9c1900214300d107
:1004fc00bde6302223ab1a7050206a4612181278cf
:10050c005a700223089a1a430892b0e61cabdb7ea1
:10051c00002b00d06ce620231caad37622783ae676
:10052c00447c0000c0c90000fffbffffa8da0000fc
:10053c000123089a1a43089222782ce6109a130089
:10054c00126804330b92002a00da53e622781093d7
:10055c0021e62b231caad37622781ce622786c2a5f
:10056c0001d100f0b1ff102308991943089112e64c
:10057c00089b13949b0601d500f08bff089bdb06b0
:10058c0009d4089b5b0601d501f04df9089b9b052e
:10059c0001d500f0c2ff109a0a9913681960130074
:1005ac0004331093139b9846c1e5089b1394149243
:1005bc00aa469b066bd4089bdb0601d500f0d0fc49
:1005cc00089b5b0601d500f07bff089b9b0501d4c3
:1005dc0000f0c6fc109b1a780c92002204330d928a
:1005ec0010930c980d990400bf4b089a0c431a40b9
:1005fc001300210000223fe6109830210368089a6e
:10060c000c9300230d9302331a43130023aa117089
:10061c0048315170020004321092b44a14912432c1
:10062c001c921394aa4602220c9925e610231492cc
:10063c00089a13941a431300aa4610999a0600d4e8
:10064c00c2e6072207319143013294468c4462463c
:10065c0010924a6809680d920c91002a00dac8e6db
:10066c000c980d9904000c430122210007e6082385
:10067c00089a1a43089222788de510231492089a4e
:10068c0013941a430892089baa469b0693d50722fb
:10069c00109b07339343013294469c4462465c683a
:1006ac001b6810920c930d949be7109b13941c1dcc
:1006bc001b681492984600231caad3764346002b41
:1006cc0001d101f0baf82b00013301d101f005f88a
:1006dc002a00002140460af071fe0f90002801d13b
:1006ec0001f007f942460f9b9b1a1a000e93db434d
:1006fc00db171a40099200221cabdb7e10940f9280
:10070c009246159218921692eae58023089a1a439b
:10071c00089222783fe50023110020001a0030399e
:10072c0093009b185b00ca18037801341900303908
:10073c0020000929f4d90b921a002de514920722f6
:10074c00109b139407339343013294469c446246a6
:10075c0010921a68aa461a9201225b681a9d1b9382
:10076c001b9b52425c006408614b280021000cf07a
:10077c0065fa002801d000f034fd01225c4b524296
:10078c00280021000af074ff002801d000f029fd98
:10079c00002200231a981b990af060ff002801d050
:1007ac0001f061f81cabdb7e149a472a01dd00f0e6
:1007bc00a2fe4e4a9046802208999143089103224a
:1007cc00099200220f9203320e9200229246159249
:1007dc001892169284e5109924200b6814920993b0
:1007ec006b461b181b783daa137000231ca8c376fc
:1007fc000b00043310930023139401210991002161
:10080c000f9101310e91002190468a461591189155
:10081c0016916ae52278682a01d100f05dfe40232a
:10082c00089919430891b6e42278601c2a2a01d150
:10083c0001f0ddf91100303900250400092900d937
:10084c00aae42b009d00ed1802786d006b181100c6
:10085c00441c303920000929f4d91d009ce4139460
:10086c00131e149201d100f003fe3daa1370002355
:10087c001ca9cb76c1e7bc68002b0fd01caa1b238c
:10088c00944663443360012373607b680134013305
:10089c00bc607b60072b00ddcbe10836119b002b85
:1008ac000cd023ab3360022373607b6802340133ba
:1008bc00bc607b60072b00ddc5e10836129b802bea
:1008cc0000d129e153460e9a9d1a002d3edd094aae
:1008dc007b689146102d2edd1022210092465c463d
:1008ec0032004e460ce0c046fffbffffc0c90000c3
:1008fc00ffffef7fb8da0000103d0832102d16dd37
:10090c0050461031013316605060b9607b60072b84
:10091c00f2dd3a002100079807f02cfe002800d0e9
:10092c0034e1103db9687b682daa102de8dca34694
:10093c00b1460c0016004a466419013332607560ea
:10094c00bc607b60072b00dd69e10836089bdb058a
:10095c0000d5bbe0434633600e9b9c4673607b68be
:10096c0064440133bc607b60072b00dda3e00836d8
:10097c00089b5b0746d50b9b099a9b1a9846002b44
:10098c0040dd102b01dc00f04affce4d1022290077
:10099c009146454622007b685c46884603e0103d44
:1009ac000836102d17dd41463160494610320133af
:1009bc007160ba607b60072bf1dd3a00210007986b
:1009cc0007f0d8fd002800d0e0e0103dba687b6845
:1009dc002dae102de7dca34614004246a8461500a8
:1009ec0042464444013335607260bc607b60072b27
:1009fc0008dd3a005946079807f0bcfd002800d0e6
:100a0c00fee0bc680b9b09998b4200da0b000a9a3a
:100a1c0094469c4463460a93002c00d0e8e00023e3
:100a2c007b600f9b002b03d00f99079806f0ecfd11
:100a3c002daeb7e5179b012b00dcbee043463360bf
:100a4c00012373607b6801345d1cbc607d60072de5
:100a5c0000dd9ae30836209b013533601d9b7d60d9
:100a6c009c4664447360bc60072d00dd99e3083636
:100a7c00002200231a981b990af0eafd002800d0e6
:100a8c00cfe1434601333360179b0135013be4183a
:100a9c007360bc607d60072d00dd9ee0083626abe0
:100aac003360219b01359c4664447360bc607d605f
:100abc00072d00dc5be73a005946079807f05afd12
:100acc00002800d09ce0bc682dae51e7149b652b30
:100adc00b0dd002200231a981b990af0b9fd0028fa
:100aec0000d1f5e0784b013440333360012373605f
:100afc007b68bc6001337b60072b01dd00f071fc6f
:100b0c000836249b179a934200dac5e1089bdb0751
:100b1c0000d5c1e1bc682be70b9b099a9d1a002def
:100b2c0000dccfe6694a7b689146102d22dd32004d
:100b3c0021004e465c4603e0103d0832102d15ddb9
:100b4c0010201031013316605060b9607b60072ba8
:100b5c00f2dd3a002100079807f00cfd002815d1b2
:100b6c00103db9687b682daa102de9dca346b1466f
:100b7c000c0016004a466419013332607560bc6083
:100b8c007b60072b00dd18e308369be6a1460f9b24
:100b9c00002b03d00f99079806f036fd4b460c221c
:100bac009b5e5b0601d500f0a7fd0a9857b03cbcd4
:100bbc0090469946a246ab46f0bd0123089a1342d3
:100bcc0000d03be7424673607b6801345d1c3260a9
:100bdc00bc607d60072d00dc60e73a005946079841
:100bec0007f0c8fc00280bd1bc687d682dae56e719
:100bfc003a005946079807f0bdfc002800d10ee7d3
:100c0c00d946c4e7089b012a00d184e1022a24d1e9
:100c1c000893002400230c930d94fff70bfc3a006f
:100c2c005946079807f0a6fc0028e9d1bc682dae00
:100c3c008ce63a005946079807f09cfc0028dfd157
:100c4c00bc682dae2ae63a005946079807f092fc8c
:100c5c000028d5d1bc682dae30e6089300240023c3
:100c6c000c930d940c980d9956aa9446b04600e03e
:100c7c00a4464a07914663464d465c1ec6080723a8
:100c8c00ca08354311002a00034030332370280072
:100c9c000a43edd10c900d91089946466246a04648
:100cac00c90701d4fff7e1fb302b01d1fff7ddfbc6
:100cbc003023023a137056ab9b1a0e939046fff7f3
:100ccc0002fbc046a8da0000c0c90000b8da000078
:100cdc002499002900dc90e3169b179a1d0095427d
:100cec0000dd1500002d0cdd434633607b68641974
:100cfc0001337560bc607b60072b01dd00f082fd69
:100d0c000836eb43db171d40169b5d1b002d00dcea
:100d1c0045e1cc4a7b689146102d00dc36e310226d
:100d2c00210092465c4632004e4604e00832103deb
:100d3c00102d00dc26e35046103101331660506054
:100d4c00b9607b60072bf1dd3a002100079807f0b2
:100d5c0011fc002800d019e7b9687b682daae6e7da
:100d6c000d9b002b00d1d1e08024089be4001c409b
:100d7c00002351461a0056abb246a1460c9c0d9d61
:100d8c0009911e0090460be00023200029000a2246
:100d9c000bf0d4fe030004000d000b4300d1c9e09e
:100dac000a220023200029000bf0c8fe01239c46d8
:100dbc004b46013e30323270e044002be4d0199b9c
:100dcc001b789845e0d14346ff2bddd0002d01d197
:100ddc00092cd9d91e9b1f99f61a1a0030000af05b
:100dec0019fd0022199990464b788c465a1e934156
:100dfc009c4463461993c7e700230e9356ab984661
:100e0c00fff761fa3a005946079807f0b3fb002840
:100e1c0000d0f5e61cabdb7ebc682dae2ce5b146f4
:100e2c00b5e6179b013b9846002b00dc37e6102bf0
:100e3c0001dc00f0b8fe834b994610239a46230040
:100e4c00444603e0103c0836102c17dd4a4632604d
:100e5c005246103301357260bb607d60072df1dda9
:100e6c003a005946079807f085fb002800d0c7e6e2
:100e7c00103cbb687d682dae102ce7dca0461c0036
:100e8c004b4633604346444401357360bc607d601f
:100e9c00072d00dc02e6a0e6209bba6833601d9ba0
:100eac009c4673607b68624401331400ba607b60bb
:100ebc00072b00dd13e30836179b5d1e002d00dcad
:100ecc0056e5604a7b689146102d53dd1022904602
:100edc0022004c46d94604e00836103d102d00dcab
:100eec0060e241461032013334607160ba607b605d
:100efc00072bf1dd3a004946079807f03bfb002829
:100f0c0000d044e6ba687b682daee6e70c9b092b53
:100f1c0000d929e7089b63210c9a3da83032425432
:100f2c0008931caa012394460e93e6336344984617
:100f3c00fff7c9f94346b04642461793099b5646fc
:100f4c009a4656ab9b1a0c940d950e93fff7bbf972
:100f5c000a680892fff746fa109b1a68fff77af9ad
:100f6c00109b1a68fff738fb109a1168fff71cfaf0
:100f7c00a14614004a466419013332607560bc60a6
:100f8c007b60072b00dcf2e495e53a0059460798a4
:100f9c0007f0f0fa002800d032e6bc682dae169ba4
:100fac00089a43449946520500d48ae0179a2100c6
:100fbc0042441192234a914642469846199b1292fa
:100fcc009a46189b3200079e002b69d0159b002b6c
:100fdc0000d1fee0159b013b15931f9b13601e9bdc
:100fec009c4653607b6861440133b9607b60072b7e
:100ffc0000ddbfe008325346444611981b78051bb0
:10100c009d4200dd1d00002d0ddd434613607b6805
:10101c00491901335560b9607b60072b00ddc5e1d0
:10102c0053461b780832e843c01705405d1b002d62
:10103c0032dd7b68102d01dc00f044fd48461024a5
:10104c000e9005e0b8da0000103d0832102d16ddc8
:10105c0048461031013310605460b9607b60072b37
:10106c00f2dd3a005946300007f084fa002800d02f
:10107c00c6e5103db9687b682daa102de8dc0e98ea
:10108c004919013310605560b9607b60072b00dd96
:10109c0099e153461b7808329844189b002b95d144
:1010ac00159b002b96d143469946129b4046984679
:1010bc0053461993179b160043440c00984200d9d1
:1010cc009946249b179a934200db21e2209a3260c6
:1010dc001d9a944672607a6864440132bc607a60ee
:1010ec00072a00dde8e2083617990a004244150089
:1010fc004a46cb1aad1a9d4200dd1d00002d0bddba
:10110c004a4632607a68641901327560bc607a6054
:10111c00072a00ddf4e30836ea43d21715405d1bbd
:10112c00002d00dc24e4e04a7b689146102d00dca5
:10113c0020e710220799904622004c46894604e08d
:10114c000836103d102d00dc12e7414610320133f9
:10115c0034607160ba607b60072bf1dd3a00594650
:10116c00484607f007fa002800d049e5ba687b68c2
:10117c002daee6e73a005946300007f0fbf900289f
:10118c0000d03de5b9682daa35e73a0059460798d5
:10119c0007f0f0f9002800d032e5bc687d682dae70
:1011ac0059e43a005946079807f0e4f9002800d0b2
:1011bc0026e5bc687d682dae5ae43a00594607987e
:1011cc0007f0d8f9002800d01ae5bc682daefff75f
:1011dc0079fb01235b429c46189be24463441893c1
:1011ec00fbe61a9d1b9c2a002300280021000bf013
:1011fc0025fd002801d000f081fc149b612b00d14f
:10120c0036e3412b00d1b0e15346013301d100f05c
:10121c0027fc2023149a9a431192472a00d1ece31d
:10122c008023089a5b001b9d1a431592002d01da4e
:10123c0000f009fc1a9b9946002312930f93149cff
:10124c00662c00d1b0e3462c01d100f06bfc119b55
:10125c000798453b594259410b0053441a000993d6
:10126c0028ab049325ab039324ab02930223019286
:10127c0000934a462b0000f0f1fc8046672c01d00d
:10128c0000f0f8fb089bdb0700d4f1e3099b434417
:10129c001c0029000022002348460af0d9f9250039
:1012ac00002809d1289dac4206d930226b1c28930a
:1012bc002a70289dac42f9d84346eb1a1793089b29
:1012cc000993159b0893119b472b00d119e2149b92
:1012dc00462b00d156e3652b01dc00f0b7fc149bc8
:1012ec00662b00d14ee3249b1693179b169a19007c
:1012fc001300914200dde4e20e92099ad20703d565
:10130c001d9a944663440e93099b5b0500d492e3ab
:10131c0067231493169b002b00dce1e20022199b3f
:10132c00159218921b78169aff2b10d09a420edd4c
:10133c001998d21a4178002900d1cae1189b0133bf
:10134c0018930300013319930b00ff2beed1169267
:10135c00159a189b94461e9a634453430e9a9446ce
:10136c009c4463460e93db436246db171a4009929a
:10137c00129b002b00d0b8e100221cabdb7e924606
:10138c00fef7aeffa346b1460c0016004a466419a0
:10139c00013332607560bc607b60072b00ddf4e5c7
:1013ac000836fce5cb46a1461400e3e53a00594665
:1013bc00300007f0dff8002800d021e45346b9686c
:1013cc001b782daa2fe63a005946300007f0d2f8c8
:1013dc00002800d014e453461b78b9682daa984411
:1013ec005be63a005946079807f0c4f8002801d08c
:1013fc00fff706fc2daefff784fb2c4b013440337a
:10140c003360012373607b68bc6001337b60072b06
:10141c0000dd9de00836002907d1179b002b04d175
:10142c00089bdb0701d4fff7a3fa209b33601d9bbd
:10143c009c4673607b6864440133bc607b60072b03
:10144c0000dd91e232000832002900da68e2414600
:10145c001160179901338c4664445160bc607b6009
:10146c00072b01ddfff727fb08321600fff780fa88
:10147c00bb68d946002b01d1fff790fb3a005946c7
:10148c00079807f077f8fff789fb109a1188fef799
:10149c008bff10990a9a0b681a60d2175a600b00ce
:1014ac0004331093fff77ef8b8da0000c0c90000cf
:1014bc00109b1a88fef7cefe00200a5efef792ff04
:1014cc00109b1a88fff788f82023089a01341a43d6
:1014dc0008922278fef75ffe80239b00f5e73a0026
:1014ec005946079807f046f8002801d0fff788fb0b
:1014fc00bc682daee0e4e14a04329046fff75bf99c
:10150c008023089adb001a4308922278fef743fee8
:10151c00089ad20700d4e7e5d8e569462820109b45
:10152c0009181a6809780433089211701093fff7a0
:10153c0039f84021079803f0a7fb4b461860186157
:10154c00002800d17be340234a465361fef7ddfdc2
:10155c003a005946079807f00df8002801d0fff71c
:10156c004ffb2499bc682dae55e7302223ab1a7083
:10157c00283202245a70089b1c435346632b00dd0f
:10158c0096e200230f933dab98468123089a5b00ab
:10159c001b9d1a431592002d00da83e2149ae23b4c
:1015ac009a431a9b11929946002308941293149b08
:1015bc00612b00d128e2412b00d040e624aa29005f
:1015cc0048460af013fdff2300229b0503f008fe9a
:1015dc000022002304000d000af03af8002801d084
:1015ec0001232493a54b1033099301235b425344ed
:1015fc00994652464346169617934e461892c14644
:10160c0007e000220023013e0af022f8002820d136
:10161c00d14600229a4b2000290003f0e1fd0d0079
:10162c0004000af04bfc804609f004fe02000b009b
:10163c002000290002f002fd012342464b449a4649
:10164c00099b04009b5c4a460d0013700e96731c9c
:10165c00d7d1179a434690464a461792189a169e27
:10166c00d14616939246874b0022200029000af09f
:10167c0009f8002800d00be10022824b2000290041
:10168c0009f0e6ff002803d0169bdb0700d5ffe02e
:10169c000e9b002b0cdbcc460e9c4b460134a44419
:1016ac0062466146914630221a7001339942fbd151
:1016bc004b4642469b1a01e63a005946079806f0fb
:1016cc0059ff002801d0fff79bfa249bbc682dae74
:1016dc000ae515990131159126e640460af054fcad
:1016ec0002000e900300fff702f82d231caad376fc
:1016fc0000229246fef7f6fd01235b420a93fff7a8
:10170c0054fa249b1693da1c02db534500dcece5ff
:10171c00149b023b1a00149320239a431192169b9c
:10172c005c1e119b2494412b00d1b6e16b465022d8
:10173c0000219b181b7826aa92461370002c00da05
:10174c0035e22b235370092c00dcbfe11caa372394
:10175c0094466344b1461e0000e02e0020000a218e
:10176c0005f082fd751e3031297020000a2105f02c
:10177c0095fc04000928f0dc1ca92b00372235004d
:10178c008c4630344e46e4b299466244ab1e1c7013
:10179c009a4200d845e2012328aa521b07325b4229
:1017ac0001e0ec5c01335146c918cc709a42f8d177
:1017bc001ca98c462a224b4662449446fb1a63446d
:1017cc00524617999b1a9c460a00624421930e922a
:1017dc00012900dcf1e11d9a0e9b944663440e93a3
:1017ec00294b099a1a401300802252001a4308927e
:1017fc000e9ad343db171a400023099215931893c2
:10180c001693b5e53a005946079806f0b3fe002842
:10181c0001d0fff7f5f9bc682daefff772fa7b68c3
:10182c001a4dfff7ddf86946109b098d1a680433d1
:10183c00089211801093fef7b5fe0995062d01d97b
:10184c000623099338210022002388460f939246e1
:10185c00099b159218921692084a0e931094002325
:10186c009044fef742fd2d231caad376fef79cff75
:10187c00302223ab1a7048327be6c046c0c9000048
:10188c00000030400000e03ffffbffffa8da000043
:10189c00179b099a28934b46013b1978d27b8a42b5
:1018ac0000d0afe130201870289b013b28931a78a8
:1018bc008a42f8d0392a00d161e10132d2b21a70d1
:1018cc00f6e61d9a179b944663440e936723149374
:1018dc00169b002b00dc56e1099b5b0500d51de532
:1018ec000e9ad343db171a400992002315931893d1
:1018fc003ee51cabdb7e2a0009951094fef764ffd5
:10190c003a005946079806f035fe002801d0fff73b
:10191c0077f9179b249abc689b1a2daefff7fcfb3a
:10192c004d42103100db76e1ca4910268946210070
:10193c004c4604e00832103d102d00dc05e110315e
:10194c00013314605660b9607b60072bf2dd3a00fe
:10195c005946079806f00efe002801d0fff750f903
:10196c00b9687b682daae6e73a005946079806f055
:10197c0001fe002801d0fff743f92499bc687b686d
:10198c002daa61e5249b1693002b00dc1de1534628
:10199c00002b00d0a9e0099bdb0700d5a5e0169b26
:1019ac000e936623149397e728ab049325ab03930c
:1019bc0024ab02935346019303234a4600930798a2
:1019cc002b0000f04bf95346040080465444099315
:1019dc0043461b78302b02d0249be41859e4002298
:1019ec0000234846290009f033fe0028f4d10123d6
:1019fc00099a9b1a2493e4184be45346002b00d00d
:101a0c000ee401239a460be424aa290048460af066
:101a1c00edfaff2300229b0503f0e2fb00220023da
:101a2c0004000d0009f014fe002800d0cae08a4b17
:101a3c0024330993d9e50e9ad343db171a40672355
:101a4c000992149351e700230f93802212069446b7
:101a5c001a9b99461b9b63441d002d231293a6e5ec
:101a6c002023149a9a431a3b11929a46fff7d8fbfb
:101a7c00289d21e4099b43441c00149b472b01d057
:101a8c00fff707fc089bdb07f2d5099b43441c00be
:101a9c00149b462b9cd0fff7fcfb149b01210f33ae
:101aac00dbb248e62023149a08949a431192cce7af
:101abc00591c079803f0e8f88046002800d1b5e0df
:101acc000f9062e563480e90fff7d9fa1cab2a22ff
:101adc009c466244002904d15246302393702b2239
:101aec0062443034531c14706ae61d9a169b94465b
:101afc00634453440e9366231493ede6149b472bd7
:101b0c004cdc08229046544b98448023089a9a4304
:101b1c001cab0892db7efef752fe5b460c229b5ef2
:101b2c00fff73ff828ab049325ab039324ab029348
:101b3c005346019303234a46009307982b0000f069
:101b4c008df85346804609939fe7a1460c00494601
:101b5c006419013311605560bc6008327b60072b3f
:101b6c0000dc74e43a005946079806f003fd00289f
:101b7c0001d0fff745f8bc687b682daa67e4099a89
:101b8c00927a1a7094e50e9b169a9b1a01331a00de
:101b9c000e93db43db171a400992a6e60c22904603
:101bac002d4b9844b1e72b4b9946fff769f901246b
:101bbc00169be41a2d235370c5e5099bdb0700d453
:101bcc000ee608e60123249331e75346002b02d19d
:101bdc00099bdb0718d51d9b013353441a000e9348
:101bec00db43db171a406623099214937de6109aa7
:101bfc00130015680433002d10db62781093040079
:101c0c00fef7c9fa0a0055e60123099365331493cc
:101c1c00653b0e9369e60f49894698e701256d42ad
:101c2c00ebe71caa2a2394466344c9e55b46402291
:101c3c009b8913435a461bb29381fef7b2ff0c23c8
:101c4c00079a13600d3b0a93fef7afff249b169384
:0c1c5c0065e5c046b8da0000c0c9000011
:020000040000fa
:101c6800f0b557464e464546de46e0b5016c99b09c
:101c780082461d0016001f00002909d00123426c6e
:101c880093404a608b600bf083fe00235246136436
:101c9800b846002f3ddb0023259a13604246214bae
:101ca8001a409a421bd0002200233000390009f064
:101cb800d1fc00283cd00123249a1b481360269ba2
:101cc800002b00d13ae20300269a1133136010303a
:101cd80019b03cbc90469946a246ab46f0bd134ba2
:101ce800249a1360002e0bd14346180308d1269b73
:101cf8000d48002becd003000833269a1360e7e761
:101d0800269b002b00d1efe1074b18000f330c3056
:101d1800f3e70123259a68001360430898461f00db
:101d2800bce7c0460000f07f84d900000f27000000
:101d380016ab019317ab009332003b00504608f0f6
:101d480077f9434683461a0d00d0bfe1169b9946a2
:101d5800179b4b441c00e64be318202b00dc4de39b
:101d68003100e44a4046a218d1400a004021cb1a6b
:101d78009840104309f0ceff631e98460123de4dbc
:101d88000f9349190022dd4b02f05af9dc4add4b6a
:101d980003f028fadc4add4b02f068fc04004046f8
:101da8000d0009f049fada4ada4b03f01bfa02008f
:101db8000b002000290002f059fc04000d000af075
:101dc8007ff80022039000232000290009f048fc36
:101dd800002800d0a6e20123039c0c93162c10d8ef
:101de800cd49e300c9183200086849683b0009f08a
:101df8004bfc002800d1fee22300013b03930023a3
:101e08000c934b4642469a1a002306931300013b53
:101e1800049300d596e2039b002b00da79e29c46f6
:101e28000d930023049a9946110061440491229b62
:101e3800092b00d984e10124052b02dd0024043b91
:101e48002293229b032b01d100f0b9fc01dc00f0a6
:101e58007dfc229b042b01d100f02bfc01230b936a
:101e6800229b052b01d000f076fc239a039b944615
:101e780063440e93013307931d1e01dc00f034fd0b
:101e8800079b98460023524600215364172d0ad910
:101e9800012204335b00180014301100013285421e
:101ea800f8d25346596450460af0cefb534618649c
:101eb80043460a900e2b00d956e1002c00d153e17d
:101ec80010961197039e002e01dc00f010fd3200e1
:101ed8000f21914b0a40d2009b1836111c685d688f
:101ee800f30601d400f0b5fc8c4b0e401a6a5b6a0d
:101ef8001098119901f070fd0323984608900991f4
:101f0800002e11d0854f0123334209d09c463a68f0
:101f18007b6820002900e04403f064f904000d0008
:101f280076100837002eeed12200089809992b0068
:101f380001f052fd06000f000c9b002b09d0002277
:101f4800774b3000390009f08bfb002801d000f0f6
:101f5800aefd404609f070f932003b0003f042f94b
:101f68000022704b02f082fb6f4a0b0094466344d8
:101f7800089009910993079b002b01d100f03bfcc5
:101f8800039b1393079b12930b9b002b01d100f02b
:101f980009fd129b00205a1e5f4bd2009b181a683d
:101fa8005b68624901f018fd089a099b02f048f83d
:101fb800089009913900300009f082ff040009f007
:101fc8003bf902000b003000390002f039f8050037
:101fd8000e000a9a3034511ce7b21491177033007e
:101fe800089809992a0009f04ffb002801d000f051
:101ff800eafd2a0033000020494902f021f80200d6
:102008000b000898099909f03ffb002801d000f05f
:10201800d3fd129b012b01d100f063fc0a9a129b9d
:102028009446634498464b461293149b994612e093
:102038002a00330000203a4902f002f8089a099b66
:1020480009f00efb002801d000f086fda1464445aa
:1020580001d100f044fc089809990022344b03f0a0
:10206800c1f80022324b089009912800310003f092
:10207800b9f80d00040009f023ff070009f0dcf8a7
:1020880002000b002000290001f0daff4b46303730
:10209800ffb25c1c1f70089a099b05000e0009f02e
:1020a800dffa0028c4d0139b0393594650460bf01f
:1020b8006ffc00232370039b249a01331360269b33
:1020c800002b00d1b9e31c600a9801e63b03144ccd
:1020d8001b0b1c43174b30009846169b2100994652
:1020e800002390440f934de613480c30f0e5c046aa
:1020f8003204000012040000000010fe0000f83f47
:1021080061436f63a787d23fb3c8608b288ac63ff5
:10211800fb799f501344d33f6099000070d40000ae
:102128000000f03f00001c400000c0fc0000e03f41
:102138000000244001fcffff84d900001030c7e5ef
:10214800002352460021536450460af07dfa534654
:10215800186401235b4207930e93023300220b930a
:1021680000230a9023922293179b002b00daabe0fe
:10217800039a0e2a00dda7e0a34bd2009b185c68e7
:102188001b6804930594239b002b00da9de2049cb2
:10219800059d300022002b00390001f01dfc09f0dc
:1021a8008ffe804609f048f822002b0003f01af849
:1021b80002000b003000390001f042ff43460a9a42
:1021c80030331370079b06000f00541c012b4ed0b0
:1021d80000228e4b03f006f80022002306000f00b1
:1021e80009f038fa002800d05fe70a9b079a9d1c7f
:1021f8009c465b46069353466244aa46049c059d4a
:10220800914607930fe00022804b02f0ebff012379
:102218009c460022002306000f00e24409f01afa47
:10222800002800d0cfe222002b003000390001f056
:10223800d3fb09f045fe804608f0feff22002b0084
:1022480002f0d0ff02000b003000390001f0f8fe68
:1022580053464246013b303206000f00d3461a70ff
:10226800d145d0d1069b54469b46079b9a463200df
:102278003b003000390002f0f9f906000f000200b7
:102288000b000498059909f0ebf900280cd1049883
:10229800059932003b0009f0ddf9002800d104e778
:1022a8004346db0700d400e7651e2f780a9b06e04b
:1022b8009d4200d147e3023c27782c00013d392f8d
:1022c800f6d001372f70f0e60b9a002a40d0229af8
:1022d800012a00dc22e2079b5c1e4b46a14500da7e
:1022e800aee21c1b079b002b00dacbe3069b08938e
:1022f800079b069a012194469c4462460692049ada
:10230800504694469c44634604930bf04bfb80462e
:1023180023e0069a039bd21a5b4299460023069251
:102328000d9384e5039808f087ff0b00020029004d
:10233800200009f08ff9020050425041039b1b1afc
:10234800039348e501239b1a06930023049362e54f
:10235800069b4c4608930023984608990b1e0eddf1
:10236800049a002a0bdd934200dd8ce1069ad21a0a
:102378000692089ad21a0892049ad31a04934b46e2
:10238800002b1ad00b9b002b00d1c0e1002c10ddd4
:1023980041462200504607f08bfd5a460100804610
:1023a800504605f05bfe0500594650460bf0f0fa22
:1023b800ab464b461a1b00d0aae1012150460bf050
:1023c800f1fa0d9b8146002b22dd1a0001005046d0
:1023d80007f06efd229b8146012b00dc55e10024ad
:1023e8004b461b6903339b004b4458680af080fe38
:1023f80020231b1a15e000230c9302e5202230004d
:10240800d31a9840b6e4c046609900000000244002
:10241800229b0024012b00dc8be10d9a0123002a6a
:10242800ded104991f208c466344184000d1aee0e9
:1024380020231b1a042b00dccde31c23181a069b4f
:102448009c46844463460693089b9c4684446346a2
:102458008c468444089363460493069b002b05dd51
:1024680059461a00504607f083fd8346049b002b0b
:1024780005dd49461a00504607f07afd81460c9b57
:10248800002b00d094e0079b002b00dc75e10b9b30
:10249800002b00d1a6e0089b002b05dd41461a0061
:1024a800504607f065fd804643460c93002c00d04b
:1024b80050e2079c0a9a013c23009446634408931f
:1024c8000123334007934b4606930c9b57464546da
:1024d8005e4692469846069b30001900994605f0dc
:1024e80013fd03000b9030332900300004930af0e9
:1024f80019fe494604004246380005f0a1ffc368aa
:102508008146002b00d01ee1010030000af00afecf
:102518008346494638000bf03bfa5b46229a134340
:1025280003d1079b002b00d107e3002c00daa8e1b8
:10253800229b1c4303d1079b002b00d1a1e15b46e2
:10254800002b00dd83e2694652465346097c5c1c39
:102558001170089a524500d18be2310000230a22fb
:10256800380008f0d7fc002306000a2229003800aa
:10257800454500d1e1e008f0cdfc414605000023c7
:102588000a22380008f0c6fca2468046a3e71c20b1
:10259800069b9c46844463460693089b9c46844459
:1025a80063460893049b9c4684446346049354e71b
:1025b800494658460af0b6fd002800db63e7039b4e
:1025c8005946013b03930a220023504608f0a2fc17
:1025d8000b9b8346002b00d0cbe20e9b002b00dc2c
:1025e800d9e207930a9b5d460024079f9b4606e0b5
:1025f800290000230a22504608f08cfc05004946b1
:10260800280005f081fc5b46303018550134bc4287
:10261800eedbab460600079c002c00dc38e20a9b88
:1026280000279c46644459460122504607f0a0fc06
:10263800494683460af076fd002800dc44e1651e21
:102648002b780a9a06e0954200d1b1e0023c237843
:102658002c00013d392bf6d001332b7049465046ea
:102668000bf096f94346002b00d11ee5002f05d04c
:10267800474503d0390050460bf08af94146504689
:102688000bf086f911e5130070e6002e00d0a6e6df
:102698003b030024002b00d0bfe6bb4b3b4200d1dc
:1026a800bbe6069b013401330693049b0133049374
:1026b800b3e601230b93239b002b00dcd1e01d0024
:1026c80098460e930793fff7ddfb079b002b00dd71
:1026d8005de500d0ade0049805990022ab4b02f00f
:1026e80081fd3b00320008f0d9ff00239946984647
:1026f800002855d0239b0a9cdb4303934946504648
:102708000bf046f94346002b00d1cee4b6e74a4623
:102718005946504607f0ccfb83464ee60f9a002aee
:1027280000d1b7e19a4a4c469446069a6344089207
:10273800dfe5002e00d070e6aae708f0ebfba24622
:1027480005008046c7e601239b46e2e600230b937b
:10275800229b022bafd00024534621005c645046d4
:1027680009f072ff5346186401235b4207930e93e6
:1027780002330a9023940b93f6e4229b022b00dc8d
:1027880085e6079b002bb5d149460522504608f03f
:10279800c1fb8146010058460af0c4fc0028a9dda7
:1027a80031230a9a1370039b541c01330393a5e742
:1027b800039b0a9a01330393312313704ee70023d6
:1027c8000b93fff752fb069b5c469b46079b9a467a
:1027d8006be4404608f030fd32003b0002f002fd99
:1027e80000226c4b01f042ff6b4a0b009446634495
:1027f8000890099109930022644b3000390001f0d8
:102808001ffc089e099f32003b0004000d0008f0e1
:102818003bff002800d0b2e0802000068446390043
:1028280061440b0032002000290008f019ff00283d
:1028380057d00023994698465ce70a98fff748fa6c
:10284800e21a0d9ba1469c469444634600240d93ce
:1028580048e5109a119b0892099302239846fff7be
:102868004ffb0023524600215364504609f0ecfe0a
:102878005346186401230a90079323930e93fff796
:102888001cfb43460c935b46069aa846b34655463e
:10289800049e9146ba46002b10dd594601223800a5
:1028a80007f066fb494683460af03cfc002800dc3a
:1028b80058e1392e00d123e10b9e31360c9b474657
:1028c8006c1c2e709846c9e6002803d1f30701d581
:1028d800b5e61c00631e1a78302afad0bee6129bb1
:1028e8009946109e119f3fe40125fff7c9fa039b03
:1028f800002b00d1d5e0109811995c420f23274a8c
:102908002340db00d3181a685b6802f06bfc2411c3
:1029180006000f00002c00d14ae102239846204d02
:102928000123234209d09c462a686b68300039008d
:10293800e04402f057fc06000f0064100835002c34
:10294800eed1fff7f9fa039b3027013303933023c5
:102958002b70b6e45968504609f076fe4346414666
:1029680004001b690c319a1c92000c3008f022fc00
:1029780001222100504607f0fbfa0c9099e500234c
:10298800994698460ce7c0460000f07f00001440c6
:102998003304000000001c400000c0fc60990000e7
:1029a80070d40000129b8f49013bdb00c9180868ee
:1029b8004968089a099b02f015fc14901591390092
:1029c800300009f07dfa050008f036fc02000b0023
:1029d8003000390001f034fb129b089009910a99e4
:1029e8001a008c46303562444c1c0d709046012b01
:1029f8001bd008980999250000227b4b02f0f2fbb6
:102a08000f00060009f05cfa040008f015fc3034e9
:102a180002000b003000390001f012fb2c70013568
:102a2800a845e9d1444608900991149815990022bf
:102a38006e4b01f01bfe089a099b08f011fe002856
:102a480067d0139b651e03932f780a9b37e4434690
:102a5800b3460c93049e069ba84699465546ba462b
:102a6800392e4dd00c9b013647466c1c2e7098466b
:102a7800f4e54246069bb346ba46049e99462f00a3
:102a88009046d0e5069b079a9b1a0893002330e4ea
:102a98000124c4e53623169a4c469b1a069a0892d6
:102aa80027e40223109e119f9846fff745fa079bdb
:102ab800002b00d18de60e9c002c00dc11e7039b57
:102ac8000022013b13933000474b390002f08afb88
:102ad800060040460f00013008f0aefb32003b0014
:102ae80002f080fb0022424b01f0c0fd414a0b007e
:102af800944663440890099112940993fff744faa5
:102b080039232b700c9b47466c1c98460a9a39232c
:102b1800a0e5149a159b0020344901f091fa089a0f
:102b2800099b08f0b1fd002801d1dae61c00631efc
:102b38001a78302afad0fff7b6fa4346b3460c9310
:102b4800049e069ba84699465546ba46392ed7d0c4
:102b5800002c00ddb0e6b1e6139a4d4603920a9bbd
:102b6800fff7adfb002800d0a8e6f30700d4a5e6e0
:102b78009fe6002341460a22504608f0cbf90e9bf7
:102b88008046002b01dd079385e4229b022b1fdc86
:102b98000e9b07937fe4229b022b19dc494605f024
:102ba800b3f90a9b303018700e9b0600079332e584
:102bb80002239846fff7c0f9139b149c03930a9bc2
:102bc8001d00fff77cfb139b149c0393fff76dfa22
:102bd8000e9b0793d5e5042b00d13ee43c23181a3d
:102be800d6e4c04660990000000024400000e03fa1
:082bf80000001c400000c0fcbd
:020000040000fa
:102c0000901a00201c0000000000000000000020be
:102c10003000000000000000cb1a0020010000007e
:102c200000000000300000202c0000000000000028
:102c3000dc140020f0000000000000005c00002018
:102c40000400000000000000161b0020010000002e
:102c500000000000171b0020010000000000000021
:102c6000cc0700200400000000000000d81a00205b
:102c70000400000000000000181b002001000000fc
:102c800000000000dc1a0020040000000100000029
:102c9000ffffffff191b00200100000000000000e3
:102ca000600000202800000000000000e01a002062
:102cb0000400000000000000e41a002004000000ee
:102cc00000000000e81a00200400000000000000de
:102cd0002e1a002002000000000000001a1b002035
:102ce00001000000000000001b1b0020010000008c
:102cf000000000001c1b002001000000000000007c
:102d0000ec1a00200400000000000000101b00204e
:102d10000200000001000000000100001d1b002057
:102d200001000000000000001e1b00200100000048
:102d3000000000001f1b0020010000000000000038
:102d4000121b00200200000000000000201b0020d9
:102d50000100000000000000211b00200100000015
:102d60000000000088000020bc00000000000000ff
:102d7000d819002028000000000000007413002073
:102d80006801000000000000481900205800000001
:102d900000000000001000200802000000000000f9
:102da000440100201400000000000000301a002040
:102db0002000000000000000501a00202000000049
:102dc000000000005801002020000000000000006a
:102dd00078010020c0000000000000003802002040
:102de0000800000000000000a019002038000000ca
:102df000000000005c170020a000000000000000a0
:102e0000141b00200200000001000000010000006f
:102e1000cc1a00200c0000000000000084180020e4
:102e20006400000000000000cc150020c800000075
:102e30000000000094160020c80000000000000000
:102e4000400200200900000000000000e8180020f7
:102e50006000000000000000701a00202000000048
:102e6000000000005402002078050000000000006f
:102e7000221b00200100000000000000231b002096
:102e80000100000000000000241b002001000000e1
:102e900000000000f01a0020040000000000000004
:102ea000bc1a00200f0000000100000057494e43eb
:102eb000313530305f30303a30300000ac1a00200d
:102ec000100000000100000061746d656c636f6e9e
:102ed0006669672e636f6d00281a002006000000e7
:102ee00001000000f8f00545d4840000fc17002024
:102ef000880000000100000057494e433135303052
:102f00005f30303a30300000000000000000000068
:102f100000000000000000000001000a31323334dc
:102f2000353637383930000000000000000000005e
:102f30000000000000000001000000000000000090
:102f40000000000000000000000000000000000081
:102f50000000000000000000000000000000000071
:102f60000000000000000000000000000000000061
:102f70000000000000000000000000000000000051
:102f8000251b00200100000001000000ff000000e0
:102f90004c0200200100000000000000f41a002094
:102fa0000400000001000000d0070020d00700202e
:102fb000280400000100000000000000bc0a0020fe
:102fc000240b00208c0b00200000000000000000fb
:102fd00000000000000000000000000000000000f1
:102fe00000000000000000000000000000000000e1
:102ff00000000000000000000000000000000000d1
:1030000000000000000000000000000000000000c0
:1030100000000000000000000000000000000000b0
:1030200000000000000000000000000000000000a0
:103030000000000000000000000000000000000090
:103040000000000000000000000000000000000080
:103050000000000000000000000000000000000070
:1030600001000000000000000e33cdab34126de60d
:10307000ecde05000b000000000000000000000076
:103080000000000000000000000000000000000040
:103090000000000000000000000000000000000030
:1030a0000000000000000000000000000000000020
:1030b0000000000000000000000000000000000010
:1033e000001a00202800000000000000f81a002049
:1033f0000400000000000000fc1a0020040000008f
:1034000000000000001b002004000000000000007d
:10341000f80b00200804000001000000000000007c
:1034200000000000f80b0020f80b0020000c00202a
:10343000000c0020080c0020080c0020100c0020bc
:10344000100c0020180c0020180c0020200c00206c
:10345000200c0020280c0020280c0020300c00201c
:10346000300c0020380c0020380c0020400c0020cc
:10347000400c0020480c0020480c0020500c00207c
:10348000500c0020580c0020580c0020600c00202c
:10349000600c0020680c0020680c0020700c0020dc
:1034a000700c0020780c0020780c0020800c00208c
:1034b000800c0020880c0020880c0020900c00203c
:1034c000900c0020980c0020980c0020a00c0020ec
:1034d000a00c0020a80c0020a80c0020b00c00209c
:1034e000b00c0020b80c0020b80c0020c00c00204c
:1034f000c00c0020c80c0020c80c0020d00c0020fc
:10350000d00c0020d80c0020d80c0020e00c0020ab
:10351000e00c0020e80c0020e80c0020f00c00205b
:10352000f00c0020f80c0020f80c0020000d00200a
:10353000000d0020080d0020080d0020100d0020b7
:10354000100d0020180d0020180d0020200d002067
:10355000200d0020280d0020280d0020300d002017
:10356000300d0020380d0020380d0020400d0020c7
:10357000400d0020480d0020480d0020500d002077
:10358000500d0020580d0020580d0020600d002027
:10359000600d0020680d0020680d0020700d0020d7
:1035a000700d0020780d0020780d0020800d002087
:1035b000800d0020880d0020880d0020900d002037
:1035c000900d0020980d0020980d0020a00d0020e7
:1035d000a00d0020a80d0020a80d0020b00d002097
:1035e000b00d0020b80d0020b80d0020c00d002047
:1035f000c00d0020c80d0020c80d0020d00d0020f7
:10360000d00d0020d80d0020d80d0020e00d0020a6
:10361000e00d0020e80d0020e80d0020f00d002056
:10362000f00d0020f80d0020f80d0020000e002005
:10363000000e0020080e0020080e0020100e0020b2
:10364000100e0020180e0020180e0020200e002062
:10365000200e0020280e0020280e0020300e002012
:10366000300e0020380e0020380e0020400e0020c2
:10367000400e0020480e0020480e0020500e002072
:10368000500e0020580e0020580e0020600e002022
:10369000600e0020680e0020680e0020700e0020d2
:1036a000700e0020780e0020780e0020800e002082
:1036b000800e0020880e0020880e0020900e002032
:1036c000900e0020980e0020980e0020a00e0020e2
:1036d000a00e0020a80e0020a80e0020b00e002092
:1036e000b00e0020b80e0020b80e0020c00e002042
:1036f000c00e0020c80e0020c80e0020d00e0020f2
:10370000d00e0020d80e0020d80e0020e00e0020a1
:10371000e00e0020e80e0020e80e0020f00e002051
:10372000f00e0020f80e0020f80e0020000f002000
:10373000000f0020080f0020080f0020100f0020ad
:10374000100f0020180f0020180f0020200f00205d
:10375000200f0020280f0020280f0020300f00200d
:10376000300f0020380f0020380f0020400f0020bd
:10377000400f0020480f0020480f0020500f00206d
:10378000500f0020580f0020580f0020600f00201d
:10379000600f0020680f0020680f0020700f0020cd
:1037a000700f0020780f0020780f0020800f00207d
:1037b000800f0020880f0020880f0020900f00202d
:1037c000900f0020980f0020980f0020a00f0020dd
:1037d000a00f0020a80f0020a80f0020b00f00208d
:1037e000b00f0020b80f0020b80f0020c00f00203d
:1037f000c00f0020c80f0020c80f0020d00f0020ed
:10380000d00f0020d80f0020d80f0020e00f00209c
:10381000e00f0020e80f0020e80f0020f00f00204c
:10382000f00f0020041b0020040000000100000035
:10383000ffffffff081b0020040000000100000044
:103840000000020050020020040000000000000000
:10385000081200206c01000001000000430000007d
:103860000000000000000000000000000000000058
:103870000000000000000000000000004300000005
:103880000000000000000000000000000000000038
:1038900000000000000000000000000043000000e5
:1038a0000000000000000000000000000000000018
:1038b00000000000000000000000000043000000c5
:1038c00000000000000000000000000000000000f8
:1038d00000000000000000000000000043000000a5
:1038e00000000000000000000000000000000000d8
:1038f0000000000000000000000000004300000085
:1039000000000000000000000000000000000000b7
:103910000000000000000000000000004300000064
:103920000000000000000000000000000000000097
:1039300000000000000000000000000085d700002b
:1039400075d3000000000000008d0000d0d90000f9
:10395000ccd90000ccd90000ccd90000ccd90000d3
:10396000ccd90000ccd90000ccd90000ccd90000c3
:10397000ccd90000ffffffffffffffffffffffffae
:10398000ffff0000010041534349490000000000cf
:103990000000000000000000000000000000000027
:1039a00000000000000041534349490000000000ae
:1039b0000000000000000000000000000000000007
:1039c00000000000000000000c1b002004000000ac
:1039d000000000000000000000000000222222225f
:020000040000fa
:1039e000f0b557464546de464e46e0b54c000e0360
:1039f00087b0834692461d008046360b640dcf0f7c
:103a0000002c4fd06f4b9c4235d08023420f1b04bb
:103a1000f600134333439946c30098466a4b002689
:103a20009c460023644403932b031b0b9b466b00b3
:103a3000ed0f50465b0d01955ed0624a934253d024
:103a40005a46d1008022400f120402430a43934693
:103a50005246d1005c4a94460022634438006840d4
:103a600084460290e41a16430f2e00d9b4e0574b57
:103a7000b6009b599f460300334399466cd10023ff
:103a80009846023308260393cee7cb464146039a75
:103a90000197022a65d1019b4a4c9c4600230022d3
:103aa00098466be00300334399464ed0002e00d178
:103ab000bce1300009f09ef903000b3b1c2b00dd3c
:103ac000ace11d22d31a5a460100da4008398e4073
:103ad0001300334399465b468b40984600233c4c89
:103ae0000026241a03939fe751465a46114329d1d1
:103af000002293460232b1e7594601431ed05b468d
:103b0000002b00d19ee1584609f074f903000b3bed
:103b10001c2b00dd8fe102005946083a91408b468c
:103b20001d21cb1a5146d9400b0059460b43514633
:103b30009b469140264b00221b1a8fe7002301224f
:103b40009b468be75146032288e7002398460133c2
:103b500004260024039367e70323b14603930c264e
:103b600062e7032a00d15ce2019b012a00d0e4e174
:103b700013409c4600230024002298460021120393
:103b8000130b0a0d12051a432305124c404622401e
:103b9000134362465b00d2075b081343190007b06a
:103ba0003cbc90469946a246ab46f0bd002380221d
:103bb0009c4612039846034ce0e70023014c002288
:103bc0009846dbe7ff07000001fcffffc8cb0000c1
:103bd0000dfcffffffff0f80d94500d939e100d16f
:103be00034e1002346464d469a46013c5b460a0ea8
:103bf0001b021a430b02170c039313041b0c39000e
:103c000028009046019304f061fe0200019b834668
:103c10005a4328003900914604f0defe350c0904b1
:103c20000d43a9450dd95b464544013ba84500d944
:103c30003ae1a94500d837e102235b429c4645445e
:103c4000e3444b46eb1a39001800049304f03efe9f
:103c5000019b0500434339000498994604f0bcfedb
:103c6000330409041b0c0b43994509d943446a1ecc
:103c7000984500d91ae1994500d817e1023d43441f
:103c80004a469b1a5a4612042a4303999346100c3b
:103c90000a0c914609045a46090c4e460d001204be
:103ca000120c4543059151437243704352190e0c57
:103cb000b218954203d980256d02ac466044150cbc
:103cc00009041204090c28185218834200d2cee0cd
:103cd00000d1c8e01d1a53469e1ab2459241524285
:103ce000ab1a9a46984500d117e13900180004f044
:103cf000edfd019b0500434339005046049304f059
:103d00006bfe04980b04310c1943884209d94144d5
:103d10006b1e884500d907e1884200d804e1023dc6
:103d20004144049bcb1a18003900049304f0cefde3
:103d3000019b8246434339000498019304f04cfef2
:103d400001980b043104090c194388420dd95346dc
:103d50004144013b884500d9e8e0884200d8e5e0cd
:103d600002235b429c464144e244019b2d04ce1a4f
:103d700051462943059d4f462a000b04080c1b0c95
:103d80005a4345437b4378435b19170cfb189d420c
:103d900003d980256d02ac4660441d0c12041b043f
:103da000120c28189b18864200d293e000d18ee0b6
:103db00001231943a04be318002b00dc99e04a07cc
:103dc00000d09ee05a46d20106d55a469b4b1a4077
:103dd00080239346db00e318994a934268dd012370
:103de000029a984c1a400023944698460022c5e651
:103df00080224b46120313420ad05b46134206d17f
:103e00001a431203120bac4688468e4cb6e64b465c
:103e10001a431203120bbc468a4cafe603005a4603
:103e2000283b9a4000239146984657e6584608f0aa
:103e3000e1ff203040e603005246283b9a40002133
:103e4000934677e608f0d6ff20305fe6884500d23b
:103e5000c7e64b46de075d0843465b081e43434604
:103e6000db079a46c2e60025924500d333e7039e5e
:103e70005946b446e244b245ad416d424544eb1863
:103e80000139984507d2984200d97fe000d1bce0c3
:103e90001d1a8b461fe79845fad1039d5545f2d967
:103ea00043468b461d1a16e79b46cae61500e7e611
:103eb0005a46c90852070a435b0590465c0d5a46ac
:103ec0000123029952021940120b8c4656e6002b30
:103ed00000d16fe746444a1eb04529d911008642f9
:103ee00000d065e7039a934200d061e762e70121c1
:103ef00049420120c21a382a21dd029b03409c4618
:103f000038e60f220a40042a00d15be70a00111d9f
:103f1000914292415242934454e7474be318002b9d
:103f2000e5dd01225242f2e71d00fae69a461ce75f
:103f3000b04239d86ed011003ae702933ae71f2a0f
:103f40003cdc20239b1a0c005846994098404b1e9d
:103f500099415b46d440d340204308431a004307ad
:103f600009d00f230340042b05d00100081d88420f
:103f70009b415b42d21813023ad50123029a0124d5
:103f80001a400023944698460022f7e50221494250
:103f90008c46039de344ac46e244aa45ad416d42e4
:103fa0004544ed182d1a96e68a1e03994d008d4260
:103fb000894149424144761803958fe71f204042ca
:103fc000c31a5846d8400300202a28d040205d4616
:103fd000821a954029434a1e914119430723002222
:103fe0000b4009d00f2300220b400800042bbdd149
:103ff000010053075202120bc908194301238846d6
:104000000299002419408c46b8e55245bed88b462b
:10401000002560e6039d9d42c6d3110062e700259e
:10402000d8e780225b4612031a43019b1203120b4e
:104030009c468846034ca1e5ff030000fffffffefe
:10404000fe070000ff070000f0b54646d6464f4683
:104050000c03c0b5cd0f4e00610a440f0c43c100e4
:104060005800400d84468a460f001903500f490a34
:104070000143c648760da846db0fd200844500d127
:10408000d8e001204340ab4200d1a6e06046351a9b
:10409000002d00dc05e1002810d10b00134300d1f6
:1040a000d7e06b1e002b00d04be153469f1aba4558
:1040b0008041641a4042241a01261ee0b34b9e42fe
:1040c00048d080231b041943382d00dd19e11f2d32
:1040d00000dd4ce120230f005b1b10009a409f4045
:1040e000e840531e9a41e940074317435346df1bfc
:1040f000611aba45a44164420c1b230200d4c5e0f6
:104100006402650a002d00d1f6e0280008f072fe76
:104110000300083b1f2b00dde9e020223c00d21aff
:104120009d40d4409f4025439e4200dddbe09e1b26
:10413000731c1f2b00dd0ae120223800d21a29004f
:1041400097402c009140d8407a1e9741dc400026d1
:1041500001430f437b0709d00f233b40042b05d0bd
:104160003b1dbb42bf417f42e4191f00230225d5fe
:10417000864b01369e4200d1afe0854b01251c40a5
:1041800043466207ff08640276051743240b760d49
:104190001d4000212403230b0c0d7e4a24051c43e3
:1041a0001440330523435b00ed075b082b433800c5
:1041b00019001cbc90469946a246f0bd0125434615
:1041c0006207ff081743e4081d40704b9e4236d03b
:1041d00024037605240b760ddbe76346f31a002be8
:1041e00000dc94e06046002835d068488642b1d0b3
:1041f00080273f043943382b00dcfde00a431700d9
:1042000000217a1e9741574457458041091944427d
:104210000c1923023ad55d4b01369e4200d14be189
:1042200001225b4b1c407b0817401f43e2071743ea
:1042300064088fe70800104300d024e721e723003b
:104240003b4300d1b9e18022120314432403240b21
:104250009fe72e007ee70800104300d1cae0581ef9
:104260008446002800d0e7e052445245804164185b
:104270004042241817000126230207d50226cfe763
:1042800064462c4300d1b3e12c0067467b0700d085
:1042900062e76307ff081f4301254346e4081d400a
:1042a00093e7002d78d1751c6d056d0d012d00dc97
:1042b000f2e05046801a8245bf41651a7f42ed1bed
:1042c0008446280200d48ce05046171aba42924124
:1042d0000c1b5542651b984614e7012543460024f4
:1042e0001d40002755e72a4cf61a2c4032e73d00c6
:1042f00028388540002717e7380008f07bfd20307c
:1043000006e70a43170000217a1e9741eee6002bcc
:1043100000d0e5e0731c9c465b055b0d012b00dcc7
:104320009fe01a4b9c4500d1c5e052445245804164
:10433000641840422418e707520817436408664689
:1043400008e71248854200d185e01d00bce629003f
:104350001f3ef140202b00d17fe04022d31a9d4028
:104360002f437d1eaf4100240f4300268ee72b0014
:104370000f00203bdf40202d71d040235d1ba94062
:104380000a43511e8a4100211743afe6ff07000090
:10439000ffff7fffffff0f80002e3ed0b34eb445de
:1043a00045d0802636046d423443382d00dda8e028
:1043b0001f2d00dd1fe1202627005046761bb74049
:1043c000e84007435046b040461eb041ec403843f9
:1043d000171aba4292410c1b5242a41a66469846da
:1043e0008be6644667462c4300d08be6002500260a
:1043f0000027eae61e00ade61f2b60dc2027f81a36
:104400000f00844687401000d84007436046824032
:10441000501e8241d9401743f5e626005046064318
:1044200005d0ed43002dd3d0904eb445bdd10c0046
:104430001700664698468de68c4883420bd063464b
:10444000d9e6002d00d096e00800104300d1e2e04c
:104450000c0017009846854e7ce6002580e7002179
:104460008ee7230050460343002e00d0a8e0002b27
:1044700000d1dee00b00134300d16be652445245fd
:1044800080416418404224181700230200d4fde63e
:10449000774b66461c405de6250050460543002ede
:1044a000cfd1002d4fd10c00144300d1a0e00c005f
:1044b000170098464ee666460024002785e61f0052
:1044c0000800203ff8400700202b00d18ee040205c
:1044d000c31a99400a43511e8a410021174392e6ac
:1044e000002e14d126005046064362d0db43002b39
:1044f0005cd187189742924164185242a4186646cc
:1045000087e650462043441ea041002460e7574ef2
:10451000b4454ed0802636045b423443382b00dd50
:104520007fe01f2b00dd8be0202627005046f61a87
:10453000b740d84007435046b040461eb0410743fd
:10454000dc40bf18d6e70d00154300d102e6504607
:10455000801a8245bf41651a7f42ed1b84462802be
:1045600000d48de65046171aba4292410c1b5242b3
:10457000a41a9846eee50d00154300d16be75046ae
:104580006707c00807438020e4080003044207d0ff
:10459000cd08054204d12c009846d70849070f439f
:1045a0007b0fe4001c43ff00304ed3e52f4eb44593
:1045b000b4d10c0017006646cce500270024e8e5de
:1045c000002b39d00b00134300d144e7c008670724
:1045d00007438020e40800030442e1d0cb080342f3
:1045e000ded1d70849070f431c00d9e7002171e746
:1045f00000250027e9e52e002700203ef740202d6a
:104600002fd04026751bac4050462043441ea0418d
:1046100000243843dce6802400252403134e0027c1
:10462000d3e5504620430700781e87410024bf1879
:1046300060e70c0017008de50c0017000b4e89e5b4
:104640001e002700203ef740202b0cd04026f31af6
:104650009c4050462043441ea04107430024bf18fd
:1046600048e70024d0e70024f3e7c046ff07000036
:10467000ffff7ffff8b54546de4657464e460c0322
:10468000e0b54e00c90f88460d00610a440f0c4387
:10469000c70019035800db0f9b464b0a510f0b4311
:1046a000760d400d1900d200d84500d1aee0351a84
:1046b000002d00dcf6e000280fd1134300d1dbe031
:1046c0006b1e002b00d037e1ba1a9742bf41641a23
:1046d0007f42e41b0126170024e0c64b9e424dd0ca
:1046e00080231b041943382d00dd07e11f2d00dd59
:1046f00038e12020431b9a460b00504683409946e0
:1047000013004846eb401843030050468240501eb9
:104710008241e9401a43ba1a611a9742a44117002c
:1047200064420c1b230262d56402650a002d00d18d
:10473000dfe0280008f05efb0300083b1f2b00ddd4
:10474000d2e020223c00d21a9d40d4409f40254315
:104750009e4200ddc4e09e1b731c1f2b00ddf1e0b8
:10476000202238002900d21ad840914097402c00ce
:104770000143781e8741dc4000260f437b0709d0a8
:104780000f233b40042b05d03b1dbb42bf417f4262
:10479000e4191f0023022cd5964b01369e4200d10e
:1047a0009ae04546944bff081c406007760564027a
:1047b0000743240b760d00212403230b0c0d8f4a95
:1047c00024051c431440330523435b00ed075b08bd
:1047d0002b43380019003cbc90469946a246ab4694
:1047e000f8bd6446044300d111e2040067467b072c
:1047f000c6d145466007ff080743e4087d4b9e424b
:1048000030d024037605240b760dd4e7331a9a466c
:10481000002b78dd002831d076488642aed080204b
:10482000000401435346382b00dce9e00a43511ee3
:104830008a410021d219ba42bf4109197c421700ae
:104840000c192302d3d56b4b01369e4200d13ae1bd
:104850000120694b1c407b0807401f43e0070743ca
:1048600064088be723003b4300d1cbe18022120395
:1048700014432403240b9ee72e007fe70800104317
:1048800000d1b4e0581e002800d0dee0ba18ba42c9
:104890009b4164185b42e418170001262302a6d549
:1048a0000226d5e7002d6ed1701c4005400d012871
:1048b00000dcf9e0b81a844687428041e51a40429c
:1048c0002d1a280200d489e0d71bba4292411c1b42
:1048d0005242a51ad84629e74546002400276ae730
:1048e000454cf61a2c4049e73d0028388540002702
:1048f0002ee7380008f07efa20301de70a43511eeb
:104900008a41002107e7002b00d0f3e0701c43052b
:104910005b0d012b00dcade0364b984200d1d1e0bd
:10492000ba18ba42bf4164187f42e419e707520837
:1049300017436408060021e72e48854200d193e022
:104940001d00d0e629001f3ef140202b00d18de054
:104950004022d31a9d402f437d1eaf4100240f43b8
:10496000002644e72b000800203bd8400300202d00
:1049700000d17de04020451ba9400a43511e8a41d9
:1049800000211a43c7e6002e50d01a4eb04257d02d
:1049900080266b429946360434434b46382b00dd63
:1049a000d6e01f2b00dd35e12026f51a2600ae40ab
:1049b000b2463e00de40ac46350056462e436546c4
:1049c000af407d1eaf41dc403743d71bba42924116
:1049d0000c1b5242a41a0600d846a3e6644667465a
:1049e0002c4300d0a2e600250026002706e71e0083
:1049f000c4e6c046ff070000ffff7fffffff0f80f8
:104a00001f2b63dc2020c31a080098409c46834675
:104a100053461000d84003005846184363469a4056
:104a2000531e9a4153460243d94003e726003e43b2
:104a300006d0eb439946002bc7d0944eb042acd180
:104a40000c0017000600d84698e6904b9a450bd00c
:104a50008246e7e6002800d09ee01800104300d10f
:104a6000e9e01c001700d846884e87e6002572e76b
:104a7000002182e723003b43002e00d0abe0002b57
:104a800000d1e7e00b00134300d177e6ba18ba4231
:104a9000bf4164187f42e419230200d4f2e07c4b4a
:104aa00017001c40060069e620003843002ed1d1d3
:104ab00000285bd11c00144300d1a8e01c001700a3
:104ac000d8465be606000024002797e650460b0018
:104ad0002038c34099465346202b00d195e040230f
:104ae00050461b1a99400a43511e8a414b460021e9
:104af0001a439fe6002e30d126003e4367d0db43a9
:104b00009a46002b1cd0614eb04260d05346382be1
:104b100000dd96e01f2b00dd9fe02026f31a260023
:104b20009e409c46b34653463e00de4033005e4600
:104b30001e4363469f407b1e9f415346dc403743e4
:104b4000bf189742924164185242a418060078e6b2
:104b500027437c1ea741002437e74c4eb04236d095
:104b600080265b4236049a463443cfe71800104350
:104b700000d103e6b81a84466745ad41e01a6d429c
:104b8000401b050200d42ce6d71bba4292411c1be5
:104b90005242a41ad846f1e51800104300d163e749
:104ba000f808670707438020e4080003044208d0a0
:104bb000dd08054205d1d208590711430f002c002a
:104bc000d8467b0fe4001c43ff00304ed6e50c00b6
:104bd00017000600d2e5002b38d00b00134300d19c
:104be00042e7f808670707438020e408000304420f
:104bf000e7d0cb080342e4d1d208490711430f00a4
:104c00001c00dee700270024d5e500216be7002526
:104c10000027f3e54e462500203ef5404b462e008a
:104c2000202b2dd04025ed1aac4027437c1ea741f8
:104c300000243743c9e6802400252403134e0027af
:104c4000dce527437c1ea741002479e70c00170010
:104c50000e4e93e50c00170090e556462300203ecb
:104c6000f34099465346202b0ed0402356469b1bbb
:104c70009c4027437c1ea7414b4600241f435fe70f
:104c80000024d2e71700b2e50024f2e7ff07000096
:044c9000ffff7fffa4
:020000040000fa
:104c9400f0b557464546de464e46e0b50d000b35a9
:104ca40083b00700162d00d89fe007239d4300d54d
:104cb400c4e0a94200d9c1e008f07efff823ff3325
:104cc4009d4200d888e2680a00d1bbe0042800d9dc
:104cd40062e138239846a80980443930c100d24e95
:104ce40071180839cc68a14219d0032362689a4329
:104cf4001300521b0f2a00ddaae0002a00db88e023
:104d040003239c4608e06246636893435a1b0f2ab8
:104d140000dd9de0002a7cdae468a142f3d1320090
:104d240034690832944200d18ce1032361689943c9
:104d34008946491b0f2900dd62e172613261002955
:104d440000db87e0b94a4b46914500d930e1db08e6
:104d5400ff3a9910ff3a8a40db0071689b190a43b5
:104d640099687260e360a1609c601300cc600121cb
:104d74008210914099426fd80b4205d1032290438f
:104d8400490004300b42fbd003239846c3009946e4
:104d9400b144cc4682466346dc68a44507d153e15e
:104da400002a00db62e1e468a44500d14ce14246fc
:104db400636893435a1b0f2af2dd01208046611970
:104dc40005436560a068e5680836c560a86040468c
:104dd400f160b16010434860ce608e603800e250ec
:104de40008f0ecfe2000083021e0102926d8380015
:104df40008f0e2fe1025182302208b4ef3181a0047
:104e04005c68083a944200d12ae1032362689a4319
:104e14001300e268a168ca6091600122e31859682e
:104e240038000a435a6008f0c9fe2000083003b075
:104e34003cbc90469946a246ab46f0bd0c230020ec
:104e44003b60f4e780213f2340208900984646e7f1
:104e5400404664e74b46e0e70323b46862689a433c
:104e64009046aa4203d3531b0f2b00dd86e0230098
:104e740043446f4a01936f4b93461b681268eb18c7
:104e8400013200d161e17f228f3393430093009973
:104e9400380008f07ffb03008146013363d0019b97
:104ea400834200d9fde0644b009a9a461b689c46f5
:104eb400534662441a60019b1100834200d150e1c1
:104ec4005b461b68013300d15fe14b46019a9b1a94
:104ed4005918534619604a46072313408022002b71
:104ee40006d008214a468946d21a91448822d21a09
:104ef4007f21009b38004b441940531a19009b46ec
:104f040008f048fb431c00d13be14b46c01a012387
:104f14005844184353461b685b44190053461960b0
:104f24004b46b3605860b44213d043460f2b00d8ad
:104f3400e4e04346072260680c3b9343063a024090
:104f440005201a436260e218506090600f2b00d96c
:104f54001fe13a4b1a68914200d91960384b1a681c
:104f6400914200d919600323b46862689a43531bc1
:104f7400954200d9c5e00f2b00dcc2e001222900d4
:104f840013431143651961603800b5606b6008f024
:104f940015fe200008304ae7142876d9542800d991
:104fa400b6e06e239846280b80446f30c10096e625
:104fb4005a0a042a6fd9142a00d9c9e011005c32b4
:104fc4005b31d20008235b429c46b218944463468a
:104fd4009a6803239846944500d1a4e04346516857
:104fe4009943894500d391e092689445f6d163468c
:104ff400da6873686146e260a1609460cc60b6e6ea
:10500400012360191d43656070613061c260826074
:105014001a004b460a4342603800e15008f0cefdc6
:105024002000083003e7c046f80b0020ff01000011
:10503400041b0020001b0020001a0020f81a002086
:10504400fc1a0020736892e608239b46073bdc4465
:105054009b46da4443465246134200d09be637e06f
:10506400dc680230a34200d159e6cee60122e318ff
:10507400596838000a435a60e368a268d3609a60aa
:1050840008f09cfd20000830d1e65b23984680445c
:105094005c30c10023e69a09110039323831d2005c
:1050a40090e7b44200d05ee74d4b009a9a461b68e5
:1050b4009c465346624411001a6001e708235b4290
:1050c4009c46e1444b469b680138994500d081e0f9
:1050d40043460342f2d173688b437360490099429b
:1050e40000d9b9e6002900d1b6e650460b4200d0fb
:1050f4004ce6490004300b42fbd047e601234a4604
:105104005360380008f05afd002090e694466ee79c
:10511400aa235b0098420ed8dd3b9846e80b8044f6
:105124007830c100dbe58910023b8b407268134381
:10513400736062465ee72b4b98421cd87c239846ea
:10514400a80c80447d30c100c9e5103300939ee66d
:10515400542a26d84b461a0b11006f326e31d200f6
:1051640030e75b0600d0abe60120009bb268434405
:1051740003435360ede6fe217e237f208900984699
:10518400ade5002301209b46c4e65b464a461a600f
:10519400a1e621003800083102f03afa53461968b2
:1051a400d7e6aa2149008a4206d84b46da0b1100f9
:1051b40078327731d20005e70a498a4206d84b464d
:1051c4009a0c11007d327c31d200fbe6fe227e2156
:1051d4009200f7e6736881e72b00e80808330ce6d1
:0851e400001a00205405000030
:020000040000fa
:1051ec00f0b557464546de464e46e0b50c039846ac
:1051fc004e00230b87b0070092469b46760dcd0fd1
:10520c00002e6bd06d4b9e4235d080245b46420ff6
:10521c002404db0014431c43c3009946684ba3468b
:10522c009c46002300276644029343461c035a0005
:10523c00db0f5046240b520d984600d176e05f4ba5
:10524c009a426dd08023410f1b040b435c49e40050
:10525c008c461c43c300002062444146b61869408a
:10526c00721c0191944607430f2f00d9b0e0554aa8
:10527c00bf00d25997465b460343994600d087e05e
:10528c0000239b46023308270293cee74246019245
:10529c00022867d0032800d10ee2012800d062e179
:1052ac00002300240022994601990140cdb200212f
:1052bc0012030b0d120b1b051343434a2405134019
:1052cc001c436400ed0764082c434846210007b0da
:1052dc003cbc90469946a246ab46f0bd034399466a
:1052ec004fd05b46002b00d189e1584607f07cfd7e
:1052fc0003000b3b1c2b00dd7ae11d22d31a3a0074
:10530c0001005c46da4008398c4013008f4023437f
:10531c009b46b94600232d4e0027361a029384e78c
:10532c00534623432ad10024022096e753462343b5
:10533c0020d0002c00d157e1200007f055fd0300d0
:10534c000b3b1c2b00dd49e11d21cb1a5146020001
:10535c00d9405346083a944093400c431b4a121ac6
:10536c0000207ae70125019b144c1d4000230022ec
:10537c0099469ce70024002201206ee75346032047
:10538c006be700239b4601330427002602934ce76e
:10539c00032381460c27029347e780220023002534
:1053ac0012039946054c82e75c464b4602986fe720
:1053bc005c464b46019502986ae7c046ff07000021
:1053cc0001fcffff08cc0000ffff0f800dfcffff6e
:1053dc004a464946170c1a0c1b041b0c08041900ee
:1053ec00000c41431500884619007d437943039511
:1053fc0089462900150045434d44029545462d0c20
:10540c00aa46029d5544a94506d98a4680214902df
:10541c008946ca4451460391290c0491414609041a
:10542c002d04090c88462900250c24044144240c25
:10543c000591210041438846210079438a466843ff
:10544c00414650448146080c48446f43824503d979
:10545c008021490289464f44010c89463900494450
:10546c00029141460f0404993f0c88460004c01970
:10547c0080444146049159460f0c0904090c884696
:10548c0059438a4639005143894641464a4351465d
:10549c00090c8b467b43d2185a44934203d9802380
:1054ac005b029b46d94451460904090c8a46414685
:1054bc0061437c43130c12044b445244a1468a466c
:1054cc003c0041466c434d4351464d440f0c7d19f5
:1054dc00a94503d98021490288464444049f039975
:1054ec00b84641448b4683458041414288465146eb
:1054fc0008042f04000c3f185846029910188946ce
:10550c00904292414f44ba46524299469346c24405
:10551c00d144cb448f42bf41c245894199459b41ff
:10552c00934592417f4249422d0c52420f435b42bc
:10553c0013437f19ff185b463c19db0d059a640277
:10554c001c43430213435d1eab415a46c00d03433b
:10555c0052021343e20156d501205a08034013436b
:10556c00e207134364085a48604400284ddd5a078b
:10557c0009d00f221a40042a05d01a1d9a429b41c9
:10558c005b42e4181300e20104d58020514ac000ac
:10559c0014406044504a904200dde3e60125db08ec
:1055ac0062071a436402019b9146220b4405640d69
:1055bc001d407ce6802259461203114208d0144249
:1055cc0006d122431203120b45469946434c6ee614
:1055dc005b461a431203120b404c68e60300544618
:1055ec00283b9c400023b9e607f0fefb2030a6e6e2
:1055fc000300283b9f400023bb4699468ae607f0f0
:10560c00f3fb203074e6b446ade701252a1a382a9c
:10561c0006dd019b00241d4000230022994646e62e
:10562c001f2a21dc20252000ad1a1e00ab40a8400b
:10563c00d6405d1eab4130431843d440430709d0dc
:10564c000f230340042b05d00300181d98429b41e7
:10565c005b42e418230221d50125019b01241d4046
:10566c0000230022994622e61f2521006d42281aac
:10567c00c1400800202a1dd05f35aa1a944023434c
:10568c005c1ea341072503431d400022002d09d0b9
:10569c000f2200241a401800042ad6d103006507f3
:1056ac006402220bdb082b4301259946019b002445
:1056bc001d40fce50024e2e7802201251203224371
:1056cc0001991203120b0d409946044cefe5c046ac
:1056dc00ff030000fffffffefe070000ff070000b6
:020000040000fa
:1056ec00f0b5de4657464e464546e0b599b00d003e
:1056fc001700412835d0542833d0422850d04328a5
:10570c0067d0442800d1ace04b2800d1a9e04a284e
:10571c0000d1cce0462800d1dfe0482800d109e1d7
:10572c0006264d2800d1d9e0452800d181e1472833
:10573c0000d1a2e107244c2800d17be1522828d1ca
:10574c000123142207a9380006f016f9002820d1ed
:10575c00089b002b1dd007a90a7c0999079898472c
:10576c0017e00023042207a9380006f005f90028e9
:10577c000fd107ab5a7803ab1a70c14b1b68002bc7
:10578c0007d0bf4b1b6807aa0020105603aa0121a3
:10579c00984719b03cbc90469946a246ab46f0bd22
:1057ac000023042207a9380006f0e6f80028f0d1ff
:1057bc0007ab5a7803ab1a70b14b1b68002be8d0bf
:1057cc00af4b1b6807aa0020105603aa022198476a
:1057dc00dfe700230c2203a9380006f0cdf80028df
:1057ec00d7d103ab09229a56002a24db18000821d2
:1057fc005956a44b09015918c97ac9b214011b197d
:10580c00d972012199724189083989b219819e494d
:10581c000b8801339bb20b800b889bb2002b03d1fe
:10582c000b8801339bb20b80974b198889b21001fe
:10583c00944b1b18d98007ab1a7002229a8003aaca
:10584c005188d980049a09928d4b1b68002ba0d0eb
:10585c008b4b1b6803aa0820105607aa04219847f3
:10586c0097e70023042207a9380006f085f80028e2
:10587c0000d08ee707ab0020185603aa10705b7897
:10588c005bb25370002b07d107ab5b88083b9bb214
:10589c0001017c4a52181381794b1b68002b00d1f3
:1058ac0077e7774b1b6803aa0521984771e700231c
:1058bc00442207a9380006f05ff8002800d068e7fa
:1058cc00724b1b68002b00d163e7704b1b68179a57
:1058dc000092110007a898475be7062600231022c8
:1058ec0003a9380006f048f8002800d051e703abb4
:1058fc000c241c57da89944600942001614909183c
:10590c00002008730822985e81465889804607a8b3
:10591c005a884281049b0a93cb889bb29c450bd03e
:10592c00102d00d835e7012300220021002006f0bd
:10593c0023f82ee70926d1e74b46002b01dda945bc
:10594c0010db07ab4a469a80002307934c4b1b682d
:10595c00002b00d11de74a4b1b6807aa3100200021
:10596c00984716e74b466a46d380d588002d00d160
:10597c000fe7230143495b58002b00d109e72101b4
:10598c00404b5b189b889bb2002b00d101e73d4b31
:10599c005b189b7a012b00d0fbe64744c5808846f8
:1059ac00384b43449b465b4600930a229246da44aa
:1059bc00a146b0460e003c0005e02f0001230ce090
:1059cc00002d00d1e5e65b469b88eb1a1bb2002b41
:1059dc00f3dd009b9f88bfb200232a4ab1583a00de
:1059ec00200005f0c9ff002800d0d2e6254bf25864
:1059fc0007ab07929f80da88d21bda80204b1b689a
:105a0c00002b05d01e4b1b6807aa414648469847f9
:105a1c00ed1badb2e41953461b78002bd0d1002df1
:105a2c0000d1b6e6013300221100100005f0a4ffee
:105a3c00afe607240023082207a9380005f09cffd5
:105a4c00002800d0a5e607ab002018569a88598884
:105a5c0003ab198001010b4b5b18db889bb29a429c
:105a6c0000d096e6064b1b68002b00d191e6044b48
:105a7c001b6803aa210098478be60824dae7c04686
:105a8c003c0100208c000020121b00204001002053
:020000040000fa
:105a9c00f0b54e464546de465746e0b585b001901a
:105aac000e001500002900d19ee037000198083f38
:105abc0008f07ef87a68032314009c432b000b3308
:105acc00b946162b47d8102110238846454546d891
:105adc009c4249dacc4938198b4689680290884235
:105aec0000d1c2e001218a46406801000390504673
:105afc0081438c4602998b46dc44614649680142dd
:105b0c004dd0104200d1a2e029000198fff7bcf85b
:105b1c00051e39d0012302007968083a99437f1891
:105b2c00ba4200d12ee1221f242a00d914e1132af3
:105b3c0000d9e8e00300320011681960516859601f
:105b4c0092689a60019c3100200001f05dfd2000fc
:105b5c0008f030f81be007218b439846b6d50c2390
:105b6c00019a0025136012e035004346e31a0f2b0f
:105b7c0025d84b46012249465b68134023434b60b2
:105b8c004c4463681a436260019808f013f82800cb
:105b9c0005b03cbc90469946a246ab46f0bd0321ed
:105bac0003988c46884321188b46994221db029a34
:105bbc003500d36892685c46d3609a60d5e74a4654
:105bcc000120464652684946024032434e46414403
:105bdc00034372604c444b60636808311843606047
:105bec00019801f011fdcfe71100fff74df805000a
:105bfc00cde75146114200d086e761463a68ba1aa1
:105c0c00924652688a4380188346a3449b4526db00
:105c1c00029ad3689268d3609a60534652465546ae
:105c2c009268db680835d3609a60221f242a00d959
:105c3c0096e0132a72d95346316899607168d9601d
:105c4c001b2a00d9a4e032001033083268e03a680d
:105c5c00ba1a924651460322496891430a00934668
:105c6c00a3449b4500da4fe7d7e70320029984460b
:105c7c00496881434046091910300290814258da34
:105c8c00d20700d540e760463a68ba1a9246526885
:105c9c0082430298511803918842e0dc53465246e5
:105cac0055469268db680835d3609a60221f242a17
:105cbc0000d98ee0132a00d888e0534631689960e9
:105ccc007168d9601b2a00d988e032001033083281
:105cdc00116819605168596092689a6051465b4628
:105cec00424641449960039b01989a1a01231a4336
:105cfc004a60524652681340424613435246536020
:105d0c0007f058ff43e733680360736843601b2a4e
:105d1c002dd803003200083308320de72b00320077
:105d2c0011685c4619605168d146596092689a6056
:105d3c001be74346fa185b469a604346c91a01238f
:105d4c00194351607a6801981340424613437b60b3
:105d5c0007f030ff35001ae7310004f0c1fcf1e622
:105d6c003100280004f0bcfc5c46d146fde6b3686b
:105d7c008360f368c360242a15d00300320010330b
:105d8c001032d9e6536803229343e4183500ece64d
:105d9c005346b1681961f1685961242a0cd032005c
